{
	"data": {
		"bytecode": {
			"linkReferences": {},
			"object": "608060405234801561000f575f80fd5b506102948061001d5f395ff3fe608060405260043610610033575f3560e01c806386ce9835146100375780639b96eece14610053578063a331e16a1461008f575b5f80fd5b610051600480360381019061004c919061019c565b6100b9565b005b34801561005e575f80fd5b5061007960048036038101906100749190610202565b610100565b6040516100869190610245565b60405180910390f35b34801561009a575f80fd5b506100a3610120565b6040516100b09190610245565b60405180910390f35b8073ffffffffffffffffffffffffffffffffffffffff166108fc3490811502906040515f60405180830381858888f193505050501580156100fc573d5f803e3d5ffd5b5050565b5f8173ffffffffffffffffffffffffffffffffffffffff16319050919050565b5f3373ffffffffffffffffffffffffffffffffffffffff1631905090565b5f80fd5b5f73ffffffffffffffffffffffffffffffffffffffff82169050919050565b5f61016b82610142565b9050919050565b61017b81610161565b8114610185575f80fd5b50565b5f8135905061019681610172565b92915050565b5f602082840312156101b1576101b061013e565b5b5f6101be84828501610188565b91505092915050565b5f6101d182610142565b9050919050565b6101e1816101c7565b81146101eb575f80fd5b50565b5f813590506101fc816101d8565b92915050565b5f602082840312156102175761021661013e565b5b5f610224848285016101ee565b91505092915050565b5f819050919050565b61023f8161022d565b82525050565b5f6020820190506102585f830184610236565b9291505056fea2646970667358221220c8ad39d2add5a2d6f7182c0b95cd09972fcda368b368d66eb0385f2286fb405f64736f6c63430008180033",
			"opcodes": "PUSH1 0x80 PUSH1 0x40 MSTORE CALLVALUE DUP1 ISZERO PUSH2 0xF JUMPI PUSH0 DUP1 REVERT JUMPDEST POP PUSH2 0x294 DUP1 PUSH2 0x1D PUSH0 CODECOPY PUSH0 RETURN INVALID PUSH1 0x80 PUSH1 0x40 MSTORE PUSH1 0x4 CALLDATASIZE LT PUSH2 0x33 JUMPI PUSH0 CALLDATALOAD PUSH1 0xE0 SHR DUP1 PUSH4 0x86CE9835 EQ PUSH2 0x37 JUMPI DUP1 PUSH4 0x9B96EECE EQ PUSH2 0x53 JUMPI DUP1 PUSH4 0xA331E16A EQ PUSH2 0x8F JUMPI JUMPDEST PUSH0 DUP1 REVERT JUMPDEST PUSH2 0x51 PUSH1 0x4 DUP1 CALLDATASIZE SUB DUP2 ADD SWAP1 PUSH2 0x4C SWAP2 SWAP1 PUSH2 0x19C JUMP JUMPDEST PUSH2 0xB9 JUMP JUMPDEST STOP JUMPDEST CALLVALUE DUP1 ISZERO PUSH2 0x5E JUMPI PUSH0 DUP1 REVERT JUMPDEST POP PUSH2 0x79 PUSH1 0x4 DUP1 CALLDATASIZE SUB DUP2 ADD SWAP1 PUSH2 0x74 SWAP2 SWAP1 PUSH2 0x202 JUMP JUMPDEST PUSH2 0x100 JUMP JUMPDEST PUSH1 0x40 MLOAD PUSH2 0x86 SWAP2 SWAP1 PUSH2 0x245 JUMP JUMPDEST PUSH1 0x40 MLOAD DUP1 SWAP2 SUB SWAP1 RETURN JUMPDEST CALLVALUE DUP1 ISZERO PUSH2 0x9A JUMPI PUSH0 DUP1 REVERT JUMPDEST POP PUSH2 0xA3 PUSH2 0x120 JUMP JUMPDEST PUSH1 0x40 MLOAD PUSH2 0xB0 SWAP2 SWAP1 PUSH2 0x245 JUMP JUMPDEST PUSH1 0x40 MLOAD DUP1 SWAP2 SUB SWAP1 RETURN JUMPDEST DUP1 PUSH20 0xFFFFFFFFFFFFFFFFFFFFFFFFFFFFFFFFFFFFFFFF AND PUSH2 0x8FC CALLVALUE SWAP1 DUP2 ISZERO MUL SWAP1 PUSH1 0x40 MLOAD PUSH0 PUSH1 0x40 MLOAD DUP1 DUP4 SUB DUP2 DUP6 DUP9 DUP9 CALL SWAP4 POP POP POP POP ISZERO DUP1 ISZERO PUSH2 0xFC JUMPI RETURNDATASIZE PUSH0 DUP1 RETURNDATACOPY RETURNDATASIZE PUSH0 REVERT JUMPDEST POP POP JUMP JUMPDEST PUSH0 DUP2 PUSH20 0xFFFFFFFFFFFFFFFFFFFFFFFFFFFFFFFFFFFFFFFF AND BALANCE SWAP1 POP SWAP2 SWAP1 POP JUMP JUMPDEST PUSH0 CALLER PUSH20 0xFFFFFFFFFFFFFFFFFFFFFFFFFFFFFFFFFFFFFFFF AND BALANCE SWAP1 POP SWAP1 JUMP JUMPDEST PUSH0 DUP1 REVERT JUMPDEST PUSH0 PUSH20 0xFFFFFFFFFFFFFFFFFFFFFFFFFFFFFFFFFFFFFFFF DUP3 AND SWAP1 POP SWAP2 SWAP1 POP JUMP JUMPDEST PUSH0 PUSH2 0x16B DUP3 PUSH2 0x142 JUMP JUMPDEST SWAP1 POP SWAP2 SWAP1 POP JUMP JUMPDEST PUSH2 0x17B DUP2 PUSH2 0x161 JUMP JUMPDEST DUP2 EQ PUSH2 0x185 JUMPI PUSH0 DUP1 REVERT JUMPDEST POP JUMP JUMPDEST PUSH0 DUP2 CALLDATALOAD SWAP1 POP PUSH2 0x196 DUP2 PUSH2 0x172 JUMP JUMPDEST SWAP3 SWAP2 POP POP JUMP JUMPDEST PUSH0 PUSH1 0x20 DUP3 DUP5 SUB SLT ISZERO PUSH2 0x1B1 JUMPI PUSH2 0x1B0 PUSH2 0x13E JUMP JUMPDEST JUMPDEST PUSH0 PUSH2 0x1BE DUP5 DUP3 DUP6 ADD PUSH2 0x188 JUMP JUMPDEST SWAP2 POP POP SWAP3 SWAP2 POP POP JUMP JUMPDEST PUSH0 PUSH2 0x1D1 DUP3 PUSH2 0x142 JUMP JUMPDEST SWAP1 POP SWAP2 SWAP1 POP JUMP JUMPDEST PUSH2 0x1E1 DUP2 PUSH2 0x1C7 JUMP JUMPDEST DUP2 EQ PUSH2 0x1EB JUMPI PUSH0 DUP1 REVERT JUMPDEST POP JUMP JUMPDEST PUSH0 DUP2 CALLDATALOAD SWAP1 POP PUSH2 0x1FC DUP2 PUSH2 0x1D8 JUMP JUMPDEST SWAP3 SWAP2 POP POP JUMP JUMPDEST PUSH0 PUSH1 0x20 DUP3 DUP5 SUB SLT ISZERO PUSH2 0x217 JUMPI PUSH2 0x216 PUSH2 0x13E JUMP JUMPDEST JUMPDEST PUSH0 PUSH2 0x224 DUP5 DUP3 DUP6 ADD PUSH2 0x1EE JUMP JUMPDEST SWAP2 POP POP SWAP3 SWAP2 POP POP JUMP JUMPDEST PUSH0 DUP2 SWAP1 POP SWAP2 SWAP1 POP JUMP JUMPDEST PUSH2 0x23F DUP2 PUSH2 0x22D JUMP JUMPDEST DUP3 MSTORE POP POP JUMP JUMPDEST PUSH0 PUSH1 0x20 DUP3 ADD SWAP1 POP PUSH2 0x258 PUSH0 DUP4 ADD DUP5 PUSH2 0x236 JUMP JUMPDEST SWAP3 SWAP2 POP POP JUMP INVALID LOG2 PUSH5 0x6970667358 0x22 SLT KECCAK256 0xC8 0xAD CODECOPY 0xD2 0xAD 0xD5 LOG2 0xD6 0xF7 XOR 0x2C SIGNEXTEND SWAP6 0xCD MULMOD SWAP8 0x2F 0xCD LOG3 PUSH9 0xB368D66EB0385F2286 0xFB BLOCKHASH PUSH0 PUSH5 0x736F6C6343 STOP ADDMOD XOR STOP CALLER "
		},
		"gasEstimates": {
			"creation": {
				"codeDepositCost": "132000",
				"executionCost": "175",
				"totalCost": "132175"
			},
			"external": {
				"getBalanceOf(address)": "3247",
				"getYourBalance()": "2959",
				"transferMoney(address)": "infinite"
			}
		},
		"methodIdentifiers": {
			"getBalanceOf(address)": "9b96eece",
			"getYourBalance()": "a331e16a",
			"transferMoney(address)": "86ce9835"
		}
	},
	"abi": [
		{
			"inputs": [
				{
					"internalType": "address",
					"name": "_address",
					"type": "address"
				}
			],
			"name": "getBalanceOf",
			"outputs": [
				{
					"internalType": "uint256",
					"name": "",
					"type": "uint256"
				}
			],
			"stateMutability": "view",
			"type": "function"
		},
		{
			"inputs": [],
			"name": "getYourBalance",
			"outputs": [
				{
					"internalType": "uint256",
					"name": "",
					"type": "uint256"
				}
			],
			"stateMutability": "view",
			"type": "function"
		},
		{
			"inputs": [
				{
					"internalType": "address payable",
					"name": "_toAddress",
					"type": "address"
				}
			],
			"name": "transferMoney",
			"outputs": [],
			"stateMutability": "payable",
			"type": "function"
		}
	]
}